:0400000049EF1FF0B5
:103E9200000166EF1FF05AEF1FF0030E056E980E39
:103EA200E82EFED7052EFCD70106000E025A035A51
:103EB200045A0150021003100410D8A463EF1FF03B
:103EC20065EF1FF04EEF1FF01200300ED36E040E9E
:103ED200D26E000E9B6E7E68070E7F6E92689368AC
:103EE200000E946E000E896E000E8A6E000E8B6EAE
:103EF200F19E7868010E076E010E086E0704D8A4C1
:103F020085EF1FF087EF1FF09CEF1FF081BC8CEF55
:103F12001FF08EEF1FF09CEF1FF0320E016E000EAD
:103F2200026E000E036E000E046E4CEC1FF0000ECB
:103F3200076E7FEF1FF00750D8A4A2EF1FF0A4EF87
:103F42001FF0C0EF1FF081ACA9EF1FF0ABEF1FF025
:103F5200C0EF1FF0320E016E000E026E000E036EF5
:103F6200000E046E4CEC1FF0010E076E8B50FF0A20
:103F7200066ED8900634FF0A8B6E7FEF1FF008049E
:103F8200D8A4C6EF1FF0C8EF1FF0DDEF1FF081BA13
:103F9200CDEF1FF0CFEF1FF0DDEF1FF0320E016EFD
:103FA200000E026E000E036E000E046E4CEC1FF04B
:103FB200000E086E7FEF1FF00850D8A4E3EF1FF049
:103FC200E5EF1FF0FCEF1FF081AAEAEF1FF0ECEF24
:103FD2001FF0FCEF1FF0320E016E000E026E000E9B
:103FE200036E000E046E4CEC1FF0010E086ED890AA
:0E3FF2008B327FEF1FF07FEF1FF000EF00F02B
:020000040020DA
:08000000FFFFFFFFFFFFFFFF00
:020000040030CA
:0E000000FF221F1EFF8081FF03C003E00340AC
:00000001FF
